:100000000C9424040C9436040C9436040C94A1290A
:100010000C942A320C9436040C9436040C94360456
:100020000C9436040C9436040C9436040C94A516E7
:100030000C9436040C9436040C9436040C94360458
:100040000C94C3180C9436040C9437140C94F913C4
:100050000C9436040C9436040C9436040C94360438
:100060000C9436040C943604FD0AE812E812070BCF
:10007000140B210B2E0BE812320BE812400BE81286
:100080004A0B540B850BE812E812E8125E0B6B0B5F
:10009000780BAA11BB11DA11BB11DE11F111E411B9
:1000A000EA1107120D121C123312571261126D124F
:1000B00077125C226222652268226D2275227F22DD
:1000C000EB22EB22EB2287228A2293229C22EB2234
:1000D000EB22EB22EB22EB22EB22A422AE22BA226D
:1000E000C222C522CE22D722DD228D2D902D952D24
:1000F000982D9B2D9E2DA12DA42DA72DAA2DAD2D84
:10010000B92DB92DB92DB92DB92DB92DB92DB92DBF
:10011000B32DB02DB62D082E0B2E0E2E112E142E13
:10012000172E1A2E1D2E084AD73B3BCE016E84BCDB
:10013000BFFDC12F3D6C74319ABD56833DDA3D0041
:10014000C77F11BED9E4BB4C3E916BAAAABE00008A
:1001500000803F05A84CCDB2D44EB93836A9020C68
:1001600050B9918688083CA6AAAA2ABE0000008041
:100170003F003E0D0A002C4C696D3A002C52583A53
:10018000002C4275663A002C002C57506F733A00D1
:100190002C002C4D506F733A003C446F6F72003C42
:1001A000436865636B003C416C61726D003C486F55
:1001B0006D65003C486F6C64003C52756E003C49B4
:1001C000646C65005D0D0A005B302E39692E32309B
:1001D0003135303631383A000D0A003D00244E00EA
:1001E0005D0D0A00204600205400204D3800204DAF
:1001F0003900204D3500204D3400204D3300204D76
:100200003200204D3100204D30002047393400208D
:100210004739330020473931002047393000204723
:100220003230002047323100204731390020473139
:10023000380020473137002047004733382E004729
:100240003830004733004732004731004730005B09
:10025000005D0D0A005B544C4F3A005D0D0A002C06
:10026000005B4739323A005D0D0A002C003A00333A
:1002700030003238005B47005D0D0A003A002C0068
:100280005B5052423A00290D0A00206D61782074BB
:10029000726176656C2C206D6D0020616363656C06
:1002A0002C206D6D2F7365635E3200206D617820A8
:1002B000726174652C206D6D2F6D696E002C20733A
:1002C0007465702F6D6D007A007900780020280029
:1002D0003D0024002028686F6D696E672070756C82
:1002E0006C2D6F66662C206D6D290D0A0020286824
:1002F0006F6D696E67206465626F756E63652C2033
:100300006D736563290D0A2432373D002028686F1C
:100310006D696E67207365656B2C206D6D2F6D693F
:100320006E290D0A2432363D002028686F6D696EF3
:100330006720666565642C206D6D2F6D696E290DD3
:100340000A2432353D00290D0A2432343D0020288C
:10035000686F6D696E672064697220696E76657278
:1003600074206D61736B3A002028686F6D696E6749
:10037000206379636C652C20626F6F6C290D0A24F1
:1003800032333D00202868617264206C696D6974A5
:10039000732C20626F6F6C290D0A2432323D0020CD
:1003A00028736F6674206C696D6974732C20626F9A
:1003B0006F6C290D0A2432313D0020287265706F60
:1003C000727420696E636865732C20626F6F6C298C
:1003D0000D0A2432303D00202861726320746F6C56
:1003E0006572616E63652C206D6D290D0A243133B1
:1003F0003D0020286A756E6374696F6E20646576AF
:10040000696174696F6E2C206D6D290D0A2431327B
:100410003D00290D0A2431313D0020287374617498
:100420007573207265706F7274206D61736B3A0022
:10043000202870726F62652070696E20696E766523
:1004400072742C20626F6F6C290D0A2431303D00CC
:1004500020286C696D69742070696E7320696E76EE
:100460006572742C20626F6F6C290D0A24363D0072
:1004700020287374657020656E61626C6520696EFA
:10048000766572742C20626F6F6C290D0A24353DDD
:1004900000290D0A24343D00202864697220706F01
:1004A000727420696E76657274206D61736B3A00A8
:1004B000290D0A24333D0020287374657020706F65
:1004C000727420696E76657274206D61736B3A0088
:1004D0002028737465702069646C652064656C61A4
:1004E000792C206D736563290D0A24323D00202884
:1004F000737465702070756C73652C2075736563FB
:10050000290D0A24313D0024303D00242420287682
:10051000696577204772626C2073657474696E67D1
:1005200073290D0A242320287669657720232070FB
:100530006172616D6574657273290D0A2447202804
:100540007669657720706172736572207374617467
:1005500065290D0A24492028766965772062756926
:100560006C6420696E666F290D0A244E2028766916
:100570006577207374617274757020626C6F636B41
:1005800073290D0A24783D76616C756520287361A6
:100590007665204772626C2073657474696E672992
:1005A0000D0A244E783D6C696E652028736176656E
:1005B000207374617274757020626C6F636B290DA7
:1005C0000A24432028636865636B2067636F646552
:1005D000206D6F6465290D0A245820286B696C6CA6
:1005E00020616C61726D206C6F636B290D0A244869
:1005F000202872756E20686F6D696E67206379635D
:100600006C65290D0A7E20286379636C65207374FC
:10061000617274290D0A2120286665656420686F5F
:100620006C64290D0A3F202863757272656E742010
:10063000737461747573290D0A6374726C2D78205C
:10064000287265736574204772626C290D0A000D6B
:100650000A4772626C20302E3969205B27242720DC
:10066000666F722068656C705D0D0A005D0D0A0092
:10067000526573746F72696E672064656661756C2C
:1006800074730050676D20456E6400436865636B4A
:1006900020446F6F720044697361626C6564004549
:1006A0006E61626C65640043617574696F6E3A20B7
:1006B000556E6C6F636B656400272448277C272484
:1006C000582720746F20756E6C6F636B00526573D2
:1006D000657420746F20636F6E74696E7565005B5E
:1006E000000D0A00486F6D696E67206661696C00D5
:1006F00050726F6265206661696C0041626F72744E
:1007000020647572696E67206379636C6500536F4E
:100710006674206C696D69740048617264206C694C
:100720006D697400414C41524D3A20000D0A004958
:100730006E76616C69642067636F64652049443A32
:1007400000556E646566696E656420666565642043
:100750007261746500556E737570706F7274656444
:1007600020636F6D6D616E64004D6F64616C206716
:10077000726F75702076696F6C6174696F6E004C72
:10078000696E65206F766572666C6F7700486F6D75
:10079000696E67206E6F7420656E61626C656400BF
:1007A000416C61726D206C6F636B004E6F742069D9
:1007B000646C6500454550524F4D20726561642060
:1007C0006661696C2E205573696E67206465666189
:1007D000756C74730056616C7565203C2033207510
:1007E0007365630053657474696E6720646973612F
:1007F000626C65640056616C7565203C2030004970
:100800006E76616C69642073746174656D656E7475
:1008100000426164206E756D62657220666F726D54
:10082000617400457870656374656420636F6D6DF5
:10083000616E64206C6574746572006572726F72AB
:100840003A20006F6B0D0A0011241FBECFEFD8E0D5
:10085000DEBFCDBF16E0A0E0B1E001C01D92AD3C0F
:10086000B107E1F70E9438040C947C380C94000026
:100870000E94C7130E94F7220E943F190E9419325A
:1008800080E2E7E2F5E0DF011D928A95E9F781E079
:100890008093270578949091BC0694FD8093280559
:1008A0000E9495140E94E6080E9466130E949F13FE
:1008B0000E9459290E94482D0E9493240E941319D6
:1008C0000E9429280E94F8081092270510922A05F4
:1008D00010922B05109229050E94C515E1CFEF92C9
:1008E000FF921F93CF93DF9300D000D0CDB7DEB738
:1008F0007C01122F8091BC0685FF0BC0C701498384
:100900005A836B837C830E94B02B7C816B815A81DC
:10091000498180912805823031F149835A836B8364
:100920007C830E949A148091270581111CC00E942B
:10093000E22449815A816B817C81882339F00E94AD
:10094000BC1549815A816B817C81E7CF212FC7017A
:100950000F900F900F900F90DF91CF911F91FF900C
:10096000EF900C94EA240F900F900F900F90DF916E
:10097000CF911F91FF90EF9008952F923F924F9249
:100980005F926F927F928F929F92AF92BF92CF921F
:10099000DF92EF92FF920F931F93CF93DF93CDB728
:1009A000DEB7E3970FB6F894DEBF0FBECDBF988BCE
:1009B0008F871B013A0109871A872B873C87C98AD1
:1009C000DA8AEB8AFC8AAF8A29960FAD29972A9694
:1009D0002FAD2A972D872B963FAD2B973D8BA4E00B
:1009E0008A9EC00111249A838983EF85F889E80FD4
:1009F000F91FF98FE88F840F951F9B8F8A8FDC0179
:100A00008D909D90AD90BC90208131814281538129
:100A1000C501B4010E942A346C8F7D8F8E8F9F8F09
:100A2000B4E00B9F80011124EF85F889E00FF11FDE
:100A3000F9A3E8A39301200F311F3BA32AA3D901F7
:100A4000CD90DD90ED90FC902081318142815381E9
:100A5000C701B6010E942A346CA37DA38EA39FA375
:100A60002401350177FA709477F87094D701C601A4
:100A7000B0588D839E83AF83B887E981FA81E20DF8
:100A8000F31D2C8D3D8D4E8D5F8D60817181828136
:100A900093810E9429346B017C01F101E00FF11F69
:100AA0002CA13DA14EA15FA16081718182819381C2
:100AB0000E9429344B015C01A7019601C301B201D8
:100AC0000E94413769837A838B839C83A5019401BB
:100AD0006D817E818F8198850E9441379B01AC0199
:100AE00069817A818B819C810E942A3469837A830F
:100AF0008B839C83A5019401C301B2010E944137FD
:100B00004B015C01A70196016D817E818F819885E3
:100B10000E9441379B01AC01C501B4010E942934F8
:100B200029813A814B815C810E949D346B017C015B
:100B30009D89992399F02DEB37E346E055EBC701EA
:100B4000B6010E94063787FD1DC02BED3FE049EC42
:100B500050E4C701B6010E94293412C02DEB37E3DF
:100B600046E055E3C701B6010E940335181654F05C
:100B70002BED3FE049EC50E4C701B6010E942A3456
:100B80006B017C018090B8069090B906A090BA06DF
:100B9000B090BB0629853A854B855C85CA01B901B1
:100BA0000E942A34A50194010E9429349B01AC01C2
:100BB000C501B4010E9441370E94CE374B015C0150
:100BC00020E030E040E05FE3C701B6010E9441371A
:100BD00029853A854B855C850E9441379F77A50121
:100BE00094010E940A350E94E0350E9477357E8B81
:100BF0006D8BDB01AB2B09F477C14B01A12CB12C20
:100C0000BF89BB2381F0C501B4010E94A3359B01BC
:100C1000AC0169897A898B899C890E944137698BEB
:100C20007A8B8B8B9C8BC501B4010E94A3354B0141
:100C30005C019B01AC01C701B6010E940A356987BE
:100C40007A878B879C87FD85E4E0FE9FC001112495
:100C50002F853889280F391F3E872D87F101E80F2E
:100C6000F91FD9012D913D914D915C916081718168
:100C7000828193810E942934A50194010E940A3542
:100C800068AB79AB8AAB9BAB29853A854B855C8594
:100C9000CA01B9010E9441379B01AC0160E070E0DC
:100CA00080E090E40E9429346B017C012BEA3AEA4F
:100CB0004AE25EE369857A858B859C850E9441378F
:100CC0004B015C0120E030E040E850E4C701B60190
:100CD0000E942A349B01AC01C501B4010E94413736
:100CE00068A779A78AA79BA720E030E040E05FE3F0
:100CF000C701B6010E9441376CA77DA78EA79FA7A9
:100D0000198201E010E0ED89FE890E171F0709F432
:100D1000EBC0B981BC3008F040C02CA53DA54EA564
:100D20005FA56D817E818F8198850E9441376B011F
:100D30007C0128A539A54AA55BA5C301B2010E9483
:100D40004137A70196010E942A346B017C012CA532
:100D50003DA54EA55FA5C301B2010E9441374B01DD
:100D60005C0128A539A54AA55BA56D817E818F818F
:100D700098850E9441379B01AC01C501B4010E94D6
:100D800029342B013C01E981EF5FE983C601D701DA
:100D90008D839E83AF83B88765C0B80180E090E003
:100DA0000E94A33529853A854B855C850E94413791
:100DB0006B017C010E9407356D837E838F8398874A
:100DC000C701B6010E94C4374B015C01AA8DBB8DDF
:100DD000CD90DD90ED90FC90F7FAF094F7F8F09458
:100DE000AAA1BBA18D919D910D90BC91A02D89834D
:100DF0009A83AB83BC832D813E814F815885C70187
:100E0000B6010E9441372B013C01A5019401698183
:100E10007A818B819C810E9441379B01AC01C30187
:100E2000B2010E942A342B013C01A5019401C701A3
:100E3000B6010E9441376B017C012D813E814F81BB
:100E4000588569817A818B819C810E9441379B0101
:100E5000AC01C701B6010E9429346D837E838F8364
:100E600098871982A30192016C8D7D8D8E8D9F8D47
:100E70000E942A34E88DF98D608371838283938385
:100E80002D813E814F8158856CA17DA18EA19FA1AE
:100E90000E942A34A8A1B9A16D937D938D939C9350
:100EA000139728A939A94AA95BA9ED85FE85608118
:100EB0007181828193810E942A34AD85BE856D93B4
:100EC0007D938D939C9313972F8949895A896B89B8
:100ED0007C898F8598890E946F04809127058111F4
:100EE00023C00F5F1F4F0FCF2F8949895A896B8904
:100EF0007C89C101E3960FB6F894DEBF0FBECDBF6B
:100F0000DF91CF911F910F91FF90EF90DF90CF90E5
:100F1000BF90AF909F908F907F906F905F904F9019
:100F20003F902F900C946F04E3960FB6F894DEBFB9
:100F30000FBECDBFDF91CF911F910F91FF90EF902A
:100F4000DF90CF90BF90AF909F908F907F906F90E9
:100F50005F904F903F902F9008958F929F92AF9205
:100F6000BF92CF92DF92EF92FF922091280522301C
:100F700009F448C04B015C0120E030E040EA51E454
:100F80000E9441370E94E0350E9477356B017C0159
:100F90000E94491620E030E04AE754E4C501B4015C
:100FA0000E9441374B015C0122E32C9DC0012D9D25
:100FB000900D1124BC0180E090E00E94A3359B01BC
:100FC000AC01C501B4010E9429340E94E0350E94A1
:100FD0007735CB010E941D29C114D10499F00E94DC
:100FE0009A1421E0C21AD1088091270581110AC004
:100FF0008FEF90E722E0815090402040E1F700C061
:101000000000EACFFF90EF90DF90CF90BF90AF90BD
:101010009F908F9008950E944E2984E00E94D529C8
:1010200083E00E94D5290E949A148091270581119E
:1010300004C00E94F8080C9459290895CF92DF92B9
:10104000EF920F931F93CF93DF9300D000D0CDB7D3
:10105000DEB7FC0180912805823009F480C0122F90
:101060006F0149835A836B837C830E9449161092D7
:101070004605802F0E944B2D0E945D2D49815A818B
:101080006B817C81882391F09FB7F89480912B0528
:10109000806180932B059FBF49835A836B837C8338
:1010A0000E949A147C816B815A8149818091270525
:1010B000811155C0212FC6010E946F0481E08093E9
:1010C00039059FB7F89480912A05826080932A059C
:1010D0009FBF0E949A1480912705811140C0809182
:1010E00028058111F6CF809139058130A9F4EE20D1
:1010F00051F08CE0ECE2F5E0AAE3B5E001900D924E
:101100008A95E1F70CC09FB7F89480912B05806118
:1011100080932B059FBF03C081E08093460510920A
:1011200039050E949A1480912705811118C00E94E8
:1011300013190E9493240E9429286CE275E0C601CD
:101140000E940E340F900F900F900F90DF91CF916F
:101150001F910F91EF90DF90CF900C94922F0F90F2
:101160000F900F900F90DF91CF911F910F91EF9003
:10117000DF90CF90089580912A0584FD26C09FB707
:10118000F89480912A05806180932A059FBF0E9470
:1011900064130E949D1380912805982F9C7021F460
:1011A00090912905913089F49FB7843029F4F894FF
:1011B00080912B05806204C0F89480912B05886093
:1011C00080932B059FBF0C947A1608958FE3E7E474
:1011D000F5E0DF011D928A95E9F76AE675E080E0A7
:1011E0000E94C021811103C087E00C94C52D089591
:1011F0006CE275E08EE595E00C940E342F923F92F0
:101200004F925F926F927F928F929F92AF92BF9216
:10121000CF92DF92EF92FF920F931F93CF93DF93C2
:10122000CDB7DEB7AA970FB6F894DEBF0FBECDBF1D
:101230006C0189E3E6E8F5E0DF011D928A95E9F7A4
:101240008AE0E7E4F5E0A7E8B5E001900D928A9521
:10125000E1F71D8E212C312C812C912C18A2F12C20
:101260001E8EAA24A394B12CEE24E3948D8DF60156
:10127000E80FF11D0081002309F46AC29FEB900F73
:101280009A3110F00C94DA128F5F8D8FAE01475EA9
:101290005F4FBE01635E7F4FC6010E945D288823B9
:1012A00011F40C94DC12498C5A8C6B8C7C8CC3012D
:1012B000B2010E940F380E947735162F70E080E04F
:1012C00090E00E94A5359B01AC01C301B2010E94D0
:1012D000293420E030E048EC52E40E9441370E947B
:1012E000A4370E947735073421F00D3409F42FC15B
:1012F00073C1183209F400C1E8F4143160F41131FB
:1013000008F0A5C0143009F44AC008F45AC01A30D5
:10131000D1F10C94E8121C31B1F128F4163108F423
:10132000C5C00C94E8121E3171F1163209F449C09F
:101330000C94E8121D3309F4D9C0A0F41533E1F17F
:1013400040F41B3209F4BBC0113309F4B8C00C944B
:10135000E8121C3310F00C94E812165310938D050C
:1013600089E0CDC01C3540F41A3508F07FC0103537
:1013700009F469C00C94E8121C3529F01F3508F4F3
:101380008CC00C94E8126115710511F00C94F812E0
:10139000BE8DBB2311F40C9405130C94DE12E09265
:1013A00086050DC01F3110F40C941B13153311F07A
:1013B0000C942813B1E0BE8FE7E0E093860580E04F
:1013C0009EC08E8D81110C94DE1292E09E8F1230A1
:1013D00089F028F4112359F0113081F08FC01632B2
:1013E00081F0103581F1133009F088C007C01092E8
:1013F000870584C0AE8DA093870580C010938705B4
:101400007DC06E317105B1F048F46431710511F0A1
:101410000C94E812B4E0B093870513C068327105EC
:1014200069F06233710511F00C94E81227E0209303
:10143000870507C0E5E0E093870503C0F6E0F09379
:10144000870581E074C038E03093870557C01231BA
:1014500029F0133139F010928B0502C0E0928B0510
:1014600082E04DC082E080938B0549C06115710513
:1014700049F41A3519F410928A0502C0E0928A05DF
:1014800083E055C06A30710511F00C94E8121A35EA
:1014900011F40C94E81284E04AC01D3519F4E0926E
:1014A000880502C01092880585E029C0143119F41E
:1014B000E092890502C01092890586E020C08E8DD9
:1014C00081110C94DE12113331F410928C0588E0F6
:1014D00093E09E8F2CC06A30710511F00C94E812D5
:1014E000E0928C0588E0A3E0AE8F21C0672B11F05D
:1014F0000C94E8128AE01BC087E001C081E0672BF2
:10150000B1F00C9401131C3111F00C944213F1E072
:10151000FE8F6115710511F40C9426136A30710564
:1015200011F00C94E81234E03093860580E0F50168
:1015300002C0EE0FFF1F8A95E2F7CF019F0128211D
:101540003921232B09F445C085E10C944B13672BFB
:1015500011F00C940113163018F4133058F017C022
:10156000183010F40C94E8121A3000F11E3159F0C2
:101570000C94E812123039F01E3129F0111120C0FC
:10158000E0928E051DC082E080938E0519C0143054
:1015900029F0153039F0E092900506C082E0809382
:1015A000900502C0109290058CE00BC0193021F01C
:1015B00082E080938F0502C010928F058DE001C0FC
:1015C0008BE0950102C0220F331F8A95E2F7C90113
:1015D000B6CF882A992A4ACE802F992787FD9095E1
:1015E000A92FB92FFC01E654F109E531F10508F006
:1015F000EFC7EC5CFF4F0C94673840929105509216
:101600009205609293057092940580E07FC04092AD
:10161000950550929605609297057092980538A1AD
:10162000316038A381E072C04092990550929A05CA
:1016300060929B0570929C0588A1826088A382E0DD
:1016400065C040929D0550929E0560929F057092E4
:10165000A00598A1946098A383E058C01093A105B9
:1016600084E054C0C301B2010E9472356093A205A8
:101670007093A3058093A4059093A50585E046C0CB
:101680004092A6055092A7056092A8057092A90500
:1016900086E03CC04092AA055092AB056092AC0532
:1016A0007092AD0587E032C04092AE055092AF0512
:1016B0006092B0057092B10588E028C04092B305F1
:1016C0005092B4056092B5057092B605AF2DA16039
:1016D000FA2E8AE01BC04092B7055092B80560927E
:1016E000B9057092BA05BF2DB260FB2E8BE00EC01B
:1016F0004092BB055092BC056092BD057092BE053C
:10170000EF2DE460FE2E8CE001C089E08501082EFB
:1017100002C0000F111F0A94E2F798012221332121
:10172000232B09F04DC721E633E002C035952795FC
:101730008A95E2F720FF09C020E030E0A901C3014B
:10174000B2010E94033587FD3DC7202A312A8ECD84
:10175000FF2029F03E8D311102C082E08E8F25FEE0
:101760000EC08091A2059091A305A091A405B0910F
:10177000A50580389649A849B1050CF025C7809188
:101780008805813031F4FE8DF230A1F520FE26C7A8
:1017900031C08091480581112DC020FE1BC0809171
:1017A0008905813039F523E333E34BEC51E4609153
:1017B00091057091920580919305909194050E94F6
:1017C00041376093910570939205809393059093B0
:1017D000940510C08091550590915605A09157052C
:1017E000B09158058093910590939205A09393052D
:1017F000B093940530FC10C0809151059091520532
:10180000A0915305B09154058093AE059093AF0518
:10181000A093B005B093B10580918605813031F475
:1018200026FC02C08CE137C7E89426F880918B052E
:10183000882371F0813031F421E028A71FA232E023
:101840003EA30BC018A682E08FA391E09EA305C023
:10185000A2E0A8A7B1E0BFA31EA2809189058130B4
:1018600021F0EE8DE33091F52AC0E3EBCE2EE5E0DA
:10187000DE2E00E010E0AF2CB12CC501002E02C01E
:10188000959587950A94E2F780FF10C023E333E330
:101890004BEC51E4D6016D917D918D919C910E940C
:1018A0004137F60160837183828393830F5F1F4FFB
:1018B000F4E0CF0ED11C03301105F9F6D2CF8091A0
:1018C0008C05813019F424E0F21280C68CE0EAE63F
:1018D000F5E0DE011D9601900D928A95E1F791FCED
:1018E00009C0309186053F8F3230B9F0383009F4A5
:1018F000AEC00EC180918D05873010F08DE1CBC652
:1019000090914D05981769F3BE01635F7F4F0E9468
:10191000C021882309F46AC6E4CFF11002C08AE12D
:10192000BAC6C10180759927892B09F47BCF6091D4
:10193000A6057091A7058091A8059091A9050E9420
:101940000F380E9477356730C8F68091A105843141
:1019500029F0823009F03CC627FC3AC68FEA2822DB
:10196000662319F061506F8F03C090918D059F8F92
:10197000BE016F5F7F4F8F8D0E94C021882309F4C5
:1019800035C6E090A1054090820550908305609097
:101990008405709085058E010F5F1F4FA12CB12C1F
:1019A000C12CD12C8F2C912CC4010C2C02C09595EC
:1019B00087950A94E2F780FF3CC0D501AA57BA4F39
:1019C000BDA3ACA3B4E1EB1229C0F501E95BFA4F6A
:1019D00027A530A941A952A96789708D818D928D63
:1019E0000E942934ECA1FDA125A536A547A550A943
:1019F0000E942934D8016D937D938D939C93139706
:101A0000B2E0CB16D104A9F4A30192010E942934BB
:101A1000F80160837183828393830BC0ECA1FDA1E5
:101A200085A596A5A7A5B0A9F80180839183A28377
:101A3000B383FFEFCF1ADF0A0C5F1F4F24E0A20E23
:101A4000B11C33E0C316D10409F0AECF12C1FF20A0
:101A500009F465CF4090820550908305609084051D
:101A60007090850503EB15E0A12CB12CC12CD12C75
:101A70008F2C912CF501E95BFA4FC4010C2C02C0AC
:101A8000959587950A94E2F780FF2BC0ADE0B0E012
:101A9000AC0FBD1FAA0DBB1D2D913D914D915C91C9
:101AA0006789708D818D928D0E942934D8012D9186
:101AB0003D914D915C910E942934F80160837183BE
:101AC00082839383F2E0CF16D104A1F4A3019201A3
:101AD0000E942934D8016D937D938D939C93139725
:101AE00009C087A590A9A1A9B2A9F8018083918313
:101AF000A283B383FFEFCF1ADF0A0C5F1F4F24E0EE
:101B0000A20EB11C33E0C316D10409F0B3CFB0C0AC
:101B10008E8D833059F49F8D953009F491C09730A4
:101B200009F4A1C0933009F0A3C082C0FF2009F4DA
:101B300094C0E0908A0540908205509083056090A3
:101B40008405709085057EE5A72E75E0B72E03EB22
:101B500015E04E01ADE08A0E911CC12CD12CEF2D69
:101B6000F0E0FDA3ECA38CA19DA10C2C02C09595E7
:101B700087950A94E2F780FD0BC0F5018081918181
:101B8000A281B381F80180839183A283B3833FC094
:101B9000FF8DF730E1F1E11029C0D50158962D9164
:101BA0003D914D915C915B97F401608171818281DF
:101BB00093810E942A34D8012D913D914D915C91E1
:101BC0000E942A34F8016083718382839383F2E058
:101BD000CF16D104E1F4A30192010E942A34D80166
:101BE0006D937D938D939C93139711C0F501208184
:101BF000318142815381D8016D917D918D919C916C
:101C00000E942A34F8016083718382839383FFEFFB
:101C1000CF1ADF0A24E0A20EB11C0C5F1F4F34E084
:101C2000830E911C83E0C816D10409F09CCF73CFBA
:101C3000F11001C01E8EBE016F5F7F4F86E007C0AE
:101C4000F11001C01E8EBE016F5F7F4F87E00E94C2
:101C5000C021882309F4CAC40BC0AF8DA53091F30D
:101C6000A73009F014C580918705823008F0B2C40E
:101C70001F8E10918705183041F4FF2009F4B5C17B
:101C80009E8D913009F0A8C48EC2AE8DA23009F0AD
:101C9000ACC11123D9F020E030E0A9016091910599
:101CA0007091920580919305909194050E9403355F
:101CB000882309F493C4143028F4123058F41130F6
:101CC00029F071C2183008F44FC16DC2FF2009F429
:101CD0008FC169C2FF2009F422CEFEA1EF2FF0E0F0
:101CE000FDA3ECA33FA1232F30E03AA729A781E071
:101CF00090E08C010FA002C0000F111F0A94E2F7C0
:101D00000EA002C0880F991F0A94E2F7082B192B26
:101D10008F2D90E080239123892B09F461C4CF019A
:101D2000880F991F880F991FFC01EA57FA4FDC01B1
:101D3000A95BBA4F57962D913D914D915C915A9761
:101D400065A576A587A590A90E9429346B017C0121
:101D500089A59AA5880F991F880F991FFC01EA573A
:101D6000FA4FDC01A95BBA4F57962D913D914D91E9
:101D70005C915A9765A576A587A590A90E942934FC
:101D80004B015C0127FE40C0E89427F82091B30581
:101D90003091B4054091B5055091B60560915E054E
:101DA00070915F0580916005909161050E940335F7
:101DB000811123C12091B7053091B8054091B90533
:101DC0005091BA0560916205709163058091640538
:101DD000909165050E94033581110FC12091BB05CB
:101DE0003091BC054091BD055091BE0560916605DE
:101DF0007091670580916805909169050E9403358F
:101E00008111FBC081E247C4F8A14F2E512C04215F
:101E10001521012B09F4E6C321EF222280918905C7
:101E2000813009F45AC009A51AA5000F111F000F2F
:101E3000111F06571A4FD8011B962D913D914D91B8
:101E40005C911E97C501B4010E9429342B013C010D
:101E50008CA19DA1880F991F880F991FFC01E6573F
:101E6000FA4F5F012385348545855685C701B60144
:101E70000E942934A30192010E9428296B017C0150
:101E8000D8011B962D913D914D915C911E97F501C6
:101E900063857485858596850E9428294B015C01A0
:101EA0006093AA057093AB058093AC059093AD0544
:101EB0009B01AC01C701B6010E9429346B017C0172
:101EC000E894F7F82AE037ED43EA5BE3C701B6018F
:101ED0000E94063718165CF166C186E8682E85E018
:101EE000782E00E010E0C201002E02C09595879583
:101EF0000A94E2F780FF12C023E333E34BEC51E492
:101F0000D3011F966D917D918D919C9152970E9466
:101F10004137F3016787708B818B928B0F5F1F4F67
:101F2000F4E06F0E711C03301105E9F67CCF20E060
:101F300030E040E05FE3C701B6010E9406371816A3
:101F40000CF460CF2FE632E143E85AE3C501B40157
:101F50000E9441379B01AC01C701B6010E940637C0
:101F600018160CF44FCF1FC1FF2009F4D8CC2091D4
:101F7000B3053091B4054091B5055091B605609117
:101F80005E0570915F0580916005909161050E94EA
:101F90000335811108C12091B7053091B8054091F2
:101FA000B9055091BA056091620570916305809101
:101FB0006405909165050E9403358111F4C020915C
:101FC000BB053091BC054091BD055091BE056091A7
:101FD00066057091670580916805909169050E947A
:101FE0000335882309F40ECFDEC02E8D2111DBC00E
:101FF000C1018E7D9C7F1E8ED9C080918905813064
:10200000B1F423E333E34BEC51E46091AA05709102
:10201000AB058091AC059091AD050E94413760936E
:10202000AA057093AB058093AC059093AD054090E5
:10203000AA055090AB056090AC057090AD0520E00E
:1020400030E040E850E4C301B2010E944137A301EF
:1020500092010E9441372B013C01A7019601C70163
:10206000B6010E9441379B01AC01C301B2010E943D
:1020700029342B013C01A5019401C501B4010E9442
:1020800041379B01AC01C301B2010E9429342B01ED
:102090003C0120E030E0A9010E94033587FDB3C276
:1020A000C301B2010E94CE372B013C01A50194016E
:1020B000C701B6010E9428299B01AC01C301B201EE
:1020C00090580E940A352B013C018091870583308E
:1020D00021F477FA709477F870948091AA05909122
:1020E000AB05A091AC05B091AD0588A399A3AAA3B7
:1020F000BBA320E030E0A901BC01CD010E94033563
:1021000087FF11C077FA709477F8709488A199A12D
:10211000AAA1BBA1B0588093AA059093AB05A09348
:10212000AC05B093AD050CA11DA1000F111F000F50
:10213000111F06571A4FA3019201C501B4010E9455
:1021400041379B01AC01C701B6010E94293420E050
:1021500030E040E05FE30E944137D8011B966D9369
:102160007D938D939C931E9709A51AA5000F111FAF
:10217000000F111F06571A4FA3019201C701B601A4
:102180000E9441379B01AC01C501B4010E942A3471
:1021900020E030E040E05FE30E944137F8016387D0
:1021A000748785879687C1018E7D907E892B09F083
:1021B0001BC28091A2059091A305A091A405B091A6
:1021C000A50580935A0590935B05A0935C05B09399
:1021D0005D058091880580934805809191059091D7
:1021E0009205A0919305B091940580935505909325
:1021F0005605A0935705B0935805C090AE05D090F2
:10220000AF05E090B005F090B105A701960160918F
:1022100051057091520580915305909154050E948B
:1022200003358823C1F080915005882321F0B70140
:10223000A6010E9475138091AE059091AF05A09103
:10224000B005B091B1058093510590935205A093CC
:102250005305B09354058091B20580935905809140
:10226000900590915005981771F04091510550914B
:10227000520560915305709154050E947513809129
:1022800090058093500580918F0590914F05981788
:1022900031F00E94A81380918F0580934F058091A3
:1022A0008605813051F46091A6057091A705809153
:1022B000A8059091A9050E94AD0780918B05809398
:1022C0004B0580918905809349053E8D3330F9F4A3
:1022D00080918C0580934C05813089F48091BB05F9
:1022E0009091BC05A091BD05B091BE05809382057B
:1022F00090938305A0938405B093850508C0109240
:1023000082051092830510928405109285058091B4
:102310008D0590914D05981759F080934D058CE0EF
:10232000FE013D96AAE6B5E001900D928A95E1F78F
:1023300080918A0580934A05E09186058E2F90E072
:10234000FC013297E830F10508F04BC0E75BFF4F26
:102350000C946738BE016F5F7F4F8F8D0E94E32022
:1023600080914D059F8D89133CC08CE0FE01319614
:10237000AAE6B5E01AC0AE8DAA2349F020E040E0FD
:1023800050E060E87FEB83EB95E00E946F0420E073
:1023900040E050E060E87FEBCE0101960E946F04C0
:1023A0008CE0FE013196AEE5B5E001900D928A9584
:1023B000E1F717C06EE575E086E003C06EE575E0F5
:1023C00087E00E94E3200DC08CE0E3EBF5E0A6E798
:1023D000B5E0EBCF8CE0E6E7F5E0DF011D928A95F2
:1023E000E9F7E0918705E0934705E83009F499C0E3
:1023F000BE8DB23009F095C08E2F90E088309105E7
:1024000008F086C0FC01EF5AFF4F0C94673820E0BB
:1024100040E050E060E87FEB0AC0409155055091E4
:10242000560560915705709158052091480583EB3A
:1024300095E00E946F046CC0C0905505D090560581
:10244000E0905705F09058050091AA051091AB0552
:102450002091AC053091AD0581E08F93E8A5EF9315
:10246000FFA1FF9315C0C0905505D0905605E09090
:102470005705F09058050091AA051091AB052091E1
:10248000AC053091AD051F9288A58F939FA19F93B6
:102490008EA0A090480545E955E063EB75E08EE518
:1024A00095E00E94BD040F900F900F9031C04091B5
:1024B0005505509156056091570570915805E12CCE
:1024C0000AC040915505509156056091570570918D
:1024D0005805EE24E39400E015C040915505509155
:1024E00056056091570570915805E12C0AC040913E
:1024F0005505509156056091570570915805EE2489
:10250000E39401E02091480583EB95E00E941E08CA
:102510008CE0E3EBF5E0AEE5B5E001900D928A9535
:10252000E1F780918E0580934E05882309F4B3C0AE
:102530000E94491690914E0580912805913069F4CA
:102540008230A1F19FB7F89480912A05886080932A
:102550002A059FBF0E949A1429C091E090934705D5
:1025600010924B0510924A051092480510924D05A5
:102570001092500510924F058230A9F0BE01635FA2
:102580007F4F80E00E94C021882381F18CE0FE0112
:102590003D96AAE6B5E001900D928A95E1F70E947A
:1025A00064130E949D1387E00E94F72D10924E0540
:1025B00080E071C081E06FC082E06DC088E16BC0D7
:1025C00089E169C084E067C08BE165C085E263C0D2
:1025D00084E161C08EE15FC08FE15DC086E15BC0D8
:1025E00080E259C083E257C084E255C087E053C0FF
:1025F0001E3189F0C8F51A3021F11C3111F40C9408
:10260000890A87E148C082E246C01E3111F00C946D
:10261000D20981E08E8F6115710541F06A30710534
:10262000B9F6A6E0A09386050C94960A95E09093DF
:1026300086050C94960A1A3011F00C94830AE1E096
:10264000EE8F82E0809386050C94DF0923E008C0BA
:102650001C35C1F4F1E0FE8F6115710561F428E0CD
:10266000209386050C94960A153311F40C94DC091A
:102670001C3591F3C6CF6A30710509F0A9CF39E056
:102680000C94940A80E0B1E0BE8F0C94970AA330BA
:1026900009F0EECACFCAAA960FB6F894DEBF0FBEF5
:1026A000CDBFDF91CF911F910F91FF90EF90DF9001
:1026B000CF90BF90AF909F908F907F906F905F90E2
:1026C0004F903F902F9008952C980895249A259A22
:1026D0000C946413811102C00C946413813011F4C2
:1026E0002D9801C02D9A2C9A0895CF93DF9300D096
:1026F00000D01F92CDB7DEB7909128059230A9F097
:102700004A835B836C837D8389830E9449164A8157
:102710005B816C817D8189810F900F900F900F906C
:102720000F90DF91CF910C946A130F900F900F9040
:102730000F900F90DF91CF910895439808953B9AA1
:102740000C949D13823011F4439A08950C949D13B8
:10275000CF93DF931F92CDB7DEB7909128059230CB
:1027600049F089830E94491689810F90DF91CF91AA
:102770000C94A2130F90DF91CF91089590910201D4
:1027800080910301891708F48058891B0895E0ECB3
:10279000F0E08081826080831092C50080E18093A8
:1027A000C400E1ECF0E080818061808380818860FA
:1027B00080838081806880830895E091010191E0A9
:1027C0009E0F903431F490E004C020912A0524FD3E
:1027D0000FC0209100019217C1F3F0E0E154FA4FCD
:1027E0008083909301018091C10080628093C10039
:1027F00008951F920F920FB60F9211248F939F93FB
:10280000EF93FF9380910001E82FF0E0E154FA4F3D
:1028100090819093C6008F5F803409F480E08093AC
:10282000000190910101891305C08091C1008F7D45
:102830008093C100FF91EF919F918F910F900FBEF8
:102840000F901F90189590910201809103018917B4
:1028500061F0E92FF0E0E150FA4F80819F5F9038FE
:1028600009F490E09093020108958FEF08951F926C
:102870000F920FB60F9211242F933F934F935F93B4
:102880006F937F938F939F93AF93BF93EF93FF9338
:102890008091C6008F33A9F050F4883109F181325C
:1028A00011F59FB7F89480912A05886015C080348F
:1028B00071F08E37C1F49FB7F89480912A05826039
:1028C0000BC09FB7F89480912A05816005C09FB71F
:1028D000F89480912A05806280932A059FBF14C0D6
:1028E0000E94BB0811C0E091030191E09E0F903857
:1028F00009F490E020910201921731F0F0E0E150EC
:10290000FA4F808390930301FF91EF91BF91AF91B4
:102910009F918F917F916F915F914F913F912F91F7
:102920000F900FBE0F901F90189580910301809318
:1029300002010895EF92FF920F931F93CF93DF93BD
:10294000D1E008E080E2F82E10E190E4E92EC09199
:102950002B05CC2389F1D0932805C1FF02C081E06B
:102960000FC0C2FF02C082E00BC0C3FF02C083E001
:1029700007C0C4FF02C084E003C0C5FF03C085E0F8
:102980000E94CD2DC0FD08C08FB7F89490912B0503
:1029900010922B058FBF10C081E00E94F72D9FB7CA
:1029A000F89480912A058F7E80932A059FBF80919D
:1029B0002A0584FFFCCFE8CFC0912A05CC2309F477
:1029C000BCC0C4FF04C081E080932705CEC0C0FF17
:1029D0000AC00E941A319FB7F89480912A058E7F11
:1029E00080932A059FBF8C2F887609F43CC0809184
:1029F0002805882349F0982F9C7769F1883021F4C5
:102A00000E946119D093290580912805811103C086
:102A100092E090932905C6FF09C0883011F4E09236
:102A2000280580912905886080932905C3FF05C08A
:102A30008091280585FF10932805C5FF0CC086E00E
:102A40000E94F72D8091290581FDC46084608093E8
:102A50002905F09228059FB7F89480912A05877977
:102A600080932A059FBFC1FF48C08C2F8876E9F567
:102A700080912805882331F08075B9F1809129056E
:102A800081FF33C08091290582FF1CC080915005D1
:102A9000882371F040915105509152056091530582
:102AA000709154050E946A1380EA9FE00E941D29DC
:102AB00080914F05882331F00E94A21388EE93E0A5
:102AC0000E941D290E94B824892B59F08091290564
:102AD00083FD07C0009328050E9483190E945A169F
:102AE00002C010922805109229059FB7F894809192
:102AF0002A058D7F80932A059FBFC2FF1EC080914B
:102B00002805807371F08091290582FF04C00E941E
:102B100064130E949D13809129058260809329058A
:102B200004C010922905109228059FB7F89480914F
:102B30002A058B7F80932A059FBF809128058C777B
:102B400011F00E94831980912805803251F4809100
:102B5000290581FF06C00E946332811102C01093D3
:102B60002805809129058111F2CEDF91CF911F9127
:102B70000F91FF90EF9008959FB7F894E7E2F5E08A
:102B80008381826083839FBF0895CF93DF930E94E8
:102B9000262E80912805813021F482E00E94F72DB5
:102BA0002FC00E946332882341F080912A05806201
:102BB00080932A050E949A1402C01092280584E08E
:102BC00091E00E9465321CC08D3079F0DD2399F1CF
:102BD000893221F4D13009F04EC0D0E00E94231494
:102BE0008F3F09F44AC08A3079F7EC2FF0E0EC5FB0
:102BF000FE4F10820E949A1480912705882311F0BD
:102C0000C0E0EBCF80910401811103C00E94C52D6B
:102C1000F7CF843229F484E091E00E948532F6CF28
:102C200080912805813011F489E0F0CF84E091E0B3
:102C30000E94FE08EBCF813288F28F3279F288321F
:102C4000C1F08B33C1F0CF3428F08BE00E94C52D4A
:102C5000C0E0C4CF2C2F30E0E1E0EC0F9FE9980FEB
:102C6000D901AC5FBE4F9A3108F480528C93CE2FBD
:102C7000B5CFD1E0B3CFD2E0B1CF0E94BC150E9456
:102C80009A1480912705882309F4A8CFDF91CF916A
:102C900008950E94BC150E949A1480912705811105
:102CA00008C00E94B824892BB1F78091280588308C
:102CB00091F308958091BC0682FF02C0289A01C05A
:102CC0002898809128058C70A1F0809184018093D0
:102CD000980180918501809397018091AF06880FBC
:102CE000845081958093960180916F0082608093DB
:102CF0006F00089580916F008D7F80936F008091A9
:102D00008100887F8160809381001092830180918F
:102D1000B2068F3F21F490912B05992349F09091B1
:102D20002805943029F090E00E941D2981E001C01F
:102D300080E09091BC0692FF02C091E08927882331
:102D400011F0289A0895289808951F920F920FB6AF
:102D50000F9211242F933F934F935F936F937F9321
:102D60008F939F93AF93BF93EF93FF9380918301D2
:102D70008111F8C18BB190919801907E8F71892B50
:102D80008BB98BB1837E90919701892B8BB9809100
:102D9000960186BD82E085BD81E0809383017894B1
:102DA0008091AA019091AB01892B09F0ADC080916F
:102DB000880190918701981709F49BC0E0918801E0
:102DC0002E2F30E086E0E89FF0011124E455FE4FFD
:102DD000F093AB01E093AA018381948190938900E1
:102DE00080938800808191819093A6018093A501B2
:102DF000E2818091A7018E1761F1E093A70181E143
:102E0000E89FF0011124E053FE4FF093A901E093F5
:102E1000A80185859685A785B089B695A7959795CC
:102E200087958093910190939201A0939301B09321
:102E3000940180938D0190938E01A0938F01B093A4
:102E400090018093890190938A01A0938B01B093A4
:102E50008C01E091A801F091A901909184018081F9
:102E600089278093980186E0829FD001839FB00DCF
:102E70001124A455BE4F15962C9181819281A38176
:102E8000B481022E04C0B695A795979587950A94AC
:102E9000D2F78093990190939A01A0939B01B093EC
:102EA0009C0185819681A781B085022E04C0B695CC
:102EB000A795979587950A94D2F780939D01909353
:102EC0009E01A0939F01B093A00181859285A38567
:102ED000B48504C0B695A795979587952A95D2F79E
:102EE0008093A1019093A201A093A301B093A401A8
:102EF0000BC00E947A169FB7F89480912A058460CF
:102F000080932A059FBF2EC10E94632D10929701C6
:102F10004091990150919A0160919B0170919C019F
:102F20008091890190918A01A0918B01B0918C01CF
:102F3000840F951FA61FB71F8093890190938A0164
:102F4000A0938B01B0938C01E091A801F091A901AD
:102F50004585568567857089481759076A077B0735
:102F600068F524E02093970145855685678570892B
:102F7000841B950BA60BB70B8093890190938A0154
:102F8000A0938B01B0938C01208180912C059091AE
:102F90002D05A0912E05B0912F0525FF04C00197A6
:102FA000A109B10903C00196A11DB11D80932C0593
:102FB00090932D05A0932E05B0932F0540919D0170
:102FC00050919E0160919F017091A00180918D01AF
:102FD00090918E01A0918F01B0919001840F951F67
:102FE000A61FB71F80938D0190938E01A0938F0130
:102FF000B0939001458556856785708948175907B4
:103000006A077B0778F52091970128602093970144
:103010004585568567857089841B950BA60BB70B74
:1030200080938D0190938E01A0938F01B0939001B6
:1030300020818091300590913105A0913205B091A9
:10304000330526FF04C00197A109B10903C0019609
:10305000A11DB11D8093300590933105A0933205D9
:10306000B09333054091A1015091A2016091A30159
:103070007091A4018091910190919201A09193018E
:10308000B0919401840F951FA61FB71F80939101E3
:1030900090939201A0939301B09394014585568536
:1030A00067857089481759076A077B0778F520916B
:1030B0009701206120939701458556856785708922
:1030C000841B950BA60BB70B8093910190939201F3
:1030D000A0939301B0939401208180913405909145
:1030E0003505A0913605B091370527FF04C001973B
:1030F000A109B10903C00196A11DB11D809334053A
:1031000090933505A0933605B09337058091280537
:10311000843039F490913805809197018923809308
:1031200097018091A5019091A60101979093A60126
:103130008093A501892B69F41092AB011092AA012A
:10314000809188018F5F80938801863011F41092FE
:10315000880190918501809197018927809397013B
:1031600010928301FF91EF91BF91AF919F918F9149
:103170007F916F915F914F913F912F910F900FBE73
:103180000F901F9018951F920F920FB60F92112457
:103190008F939F938BB1909185019C71837E892B36
:1031A0008BB915BC9F918F910F900FBE0F901F9000
:1031B00018950F931F93CF93DF9310928501109270
:1031C0008401C0E0D0E01C2F0C2F2091B00630E02D
:1031D0008C2F0C2E02C0359527950A94E2F720FF1C
:1031E00007C00E942A2390918501892B8093850135
:1031F0002091B10630E002C0359527950A95E2F797
:1032000020FF08C0812F0E94342390918401892BD4
:10321000809384012196C330D105A9F6DF91CF9127
:103220001F910F9108950E947A168BE2E4E5F1E078
:10323000DF011D928A95E9F783E2E9E8F1E0DF0119
:103240001D928A95E9F710928201109281011092E5
:1032500088011092870181E080938601109283019A
:103260000E94D9188BB1837E90918501892B8BB9EF
:103270008BB18F7190918401892B8BB908958AB19C
:103280008C618AB9209A8AB1806E8AB9E1E8F0E04F
:1032900080818F7E8083808188608083E0E8F0E099
:1032A00080818C7F808380818F708083EEE6F0E068
:1032B0008081887F808314BC15BC8081816080837D
:1032C0000895CF93DF93C0918101D091820120971F
:1032D000B9F081E08093550160916B0170916C01B0
:1032E00080916D0190916E019B01AC010E9441376C
:1032F000698B7A8B8B8B9C8B10928201109281014F
:10330000DF91CF9108952F923F924F925F926F92EB
:103310007F928F929F92AF92BF92CF92DF92EF9265
:10332000FF920F931F93CF93DF93CDB7DEB7E8974C
:103330000FB6F894DEBF0FBECDBF80912805807711
:1033400009F4FBC020E030E0A90160916B017091AD
:103350006C0180916D0190916E010E940335811185
:10336000ECC057C62FA138A549A55AA5B80188AD0C
:103370009FA90E94063718160CF448C53D85309366
:103380006601832D922DA981BD8180936B0190935D
:103390006C01A0936D01B0936E0180915A019091E0
:1033A0005B01A0915C01B0915D018D879E87AF8725
:1033B000B88B980148AD5FA9BC01CD010E9441378F
:1033C00069837A838B839C830E94F0346B017C0138
:1033D0006091560170915701809158019091590167
:1033E0000E94F0344B015C01A70196010E94293430
:1033F0000E9477356D837E838F83988726E0A98529
:10340000BA852A9FF0012B9FF00D1124E455FE4F41
:103410004D815E8151834083CA01892B09F41AC50D
:1034200020916201309163014091640150916501E6
:10343000C301B2010E942A342B013C0129813A8147
:103440004B815C81C501B4010E9429349B01AC0110
:10345000C301B2010E940A354B015C0129813A8106
:103460004B815C81C701B6010E942934A5019401FA
:103470000E944137609362017093630180936401FD
:103480009093650120EC31EE44E65EE4C501B401A1
:103490000E9441370E94F0340E947735603DB7E0CA
:1034A0007B078105910508F0FDC446E029853A8532
:1034B000429FF001439FF00D1124E455FE4F158209
:1034C00046E029853A85429FF001439FF00D112483
:1034D000E455FE4F74836383809186018093870156
:1034E0008F5F863009F437C580938601209167018C
:1034F000309168014091690150916A01B80188AD2D
:103500009FA90E94063718160CF028C5E09181018A
:10351000F0918201C801A8ADBFA985A396A3A7A376
:10352000B0A729813A814B815C8120935601309369
:10353000570140935801509359019091880180910F
:103540008601981709F465C58091810190918201E7
:10355000892B09F069C20E94B8241C019093820152
:1035600080938101009709F454C580915501109111
:103570002805882319F010925501CEC0809154017E
:103580008F5F853019F08093540102C0109254016E
:10359000E091540121E12E9FF0011124E053FE4FF0
:1035A000F0938001E0937F01D1018C91808311968B
:1035B0004D915D916D917C911497DB01CA0123E0DF
:1035C000880F991FAA1FBB1F2A95D1F78183928369
:1035D000A383B483D10115964D915D916D917C913A
:1035E0001897DB01CA0133E0880F991FAA1FBB1F80
:1035F0003A95D1F785839683A783B087D101199631
:103600004D915D916D917C911C97DB01CA0143E066
:10361000880F991FAA1FBB1F4A95D1F781879287F0
:10362000A387B487D1011D964D915D916D917C91D9
:103630005097DB01CA0153E0880F991FAA1FBB1FD7
:103640005A95D1F785879687A787B08BF101658555
:103650007685878590890E94A33560935601709383
:1036600057018093580190935901D10195962D915E
:103670003D914D915C9198970E940A359B01AC0158
:1036800060935A0170935B0180935C0190935D019C
:1036900060E070E080EA9FE30E940A3560935E017B
:1036A00070935F01809360019093610110926201B9
:1036B000109263011092640110926501812F80774E
:1036C000D1F06091730170917401809175019091B6
:1036D000760160936B0170936C0180936D01909300
:1036E0006E019B01AC010E944137F101618B728B2D
:1036F000838B948B11C0D10151966D917D918D91E9
:103700009C9154970E94CE3760936B0170936C012B
:1037100080936D0190936E01109267011092680181
:103720001092690110926A01F10181A092A0A3A0F8
:10373000B4A0A501940160E070E080E09FE30E94E6
:103740000A352B013C011077D1019596CD90DD9083
:10375000ED90FC909897112309F44DC0B2E0B0931E
:103760006601D10151962D913D914D915C915497F7
:1037700029833A834B835C830E9441379B01AC01D0
:10378000C701B6010E9429342B013C0120E030E042
:10379000A9010E94033587FF1DC0A5019401C50141
:1037A000B4010E942A34A70196010E9441379B016F
:1037B000AC0169817A818B819C810E9429340E94AD
:1037C000CE37609373017093740180937501909369
:1037D00076012AC1409267015092680160926901A6
:1037E00070926A0110927301109274011092750127
:1037F0001092760119C110926601C0927701D092A1
:103800007801E0927901F0927A010E94C8244B017C
:103810005C016093730170937401809375019093C0
:1038200076019B01AC010E9441376D837E838F83BB
:1038300098870091810110918201D80195962D9170
:103840003D914D915C91989729873A874B875C878A
:1038500051962D913D914D915C91549729833A83D6
:103860004B835C839B01AC0169817A818B819C8154
:103870000E9429349B01AC01C301B2010E9441376F
:103880009B01AC0169857A858B859C850E942A34D1
:1038900020E030E040E05FE30E9441376B017C01B3
:1038A00020E030E0A9010E94063718160CF0ACC0E9
:1038B00029853A854B855C85C701B6010E94033591
:1038C00087FF8EC0F801858C968CA78CB0A02D81C7
:1038D0003E814F815885C501B4010E9429349B0166
:1038E000AC01C301B2010E94413760937B01709328
:1038F0007C0180937D0190937E01A70196010E9437
:10390000033587FF3DC0C501B4010E94CE376093E7
:103910006F01709370018093710190937201A50102
:10392000940169817A818B819C810E940335811188
:1039300004C0F1E0F093660177C029813A814B81A0
:103940005C81C501B4010E9429349B01AC01C30113
:10395000B2010E9441379B01AC01609177017091E7
:1039600078018091790190917A010E9429346093C5
:103970007701709378018093790190937A0154C014
:10398000C0927701D0927801E0927901F0927A01A9
:10399000C0927B01D0927C01E0927D01F0927E0189
:1039A000D80191966D917D918D919C9194979B01F9
:1039B000AC010E942A34A70196010E9441372D8153
:1039C0003E814F8158850E942A340E94CE376093F1
:1039D0006F0170937001809371019093720124C004
:1039E000B2E0B093660180916B0190916C01A0915F
:1039F0006D01B0916E0180936F0190937001A0935F
:103A00007101B093720110C0109277011092780189
:103A10001092790110927A0180926F019092700158
:103A2000A0927101B092720180918701E82FF0E0BD
:103A3000FA87E98746E09F01429FF001439FF00D1E
:103A40001124E455FE4F80915401828380918101BD
:103A5000909182019A8B898BDC019596BC91BBA7D2
:103A6000FC01F6A1FCA7DC019796BC91BDA7FC0167
:103A7000F0A5FEA720915E0130915F0140916001A9
:103A8000509161016BA57CA58B2F9F2F0E9429343B
:103A90006FA378A789A79AA720E030E0A9010E9428
:103AA000033587FF04C01FA218A619A61AA62091E5
:103AB00077012F8B30917801388F40917901498FB0
:103AC00050917A015A8F80916F018B8F9091700184
:103AD0009C8FA0917101AD8FB0917201BE8FE0916A
:103AE0007B01EF8FF0917C01F8A320917D0129A348
:103AF00030917E013AA3409166014D8730906B0171
:103B000020906C0150916D01598380916E018D83DD
:103B1000909167019BA3A0916801ACA3B09169014A
:103B2000BDA3E0916A01EEA320917301309174016D
:103B300040917501509176012BAB3CAB4DAB5EAB28
:103B40000BA51CA53DA538AF4EA54FAB8EE3C82EE7
:103B500083ECD82E8EE2E82E89E3F82E412C512CEE
:103B60003201CB8ADC8AED8AFE8A9D85992321F079
:103B7000913009F482C0B4C0A989BA8991962D9177
:103B80003D914D915C919497C701B6010E944137D8
:103B90004B015C0120E030E040E05FE30E944137F0
:103BA0009B01AC01632D722D89819D810E942A3475
:103BB0009B01AC01C701B6010E9441379B01AC01DA
:103BC000B80188AD9FA90E9429348B0188AF9FABB3
:103BD0002F89388D498D5A8D0E94033587FF40C04B
:103BE0002F89388D498D5A8D6BA57CA58DA59EA5F5
:103BF0000E9429349B01AC010E942A346B017C0194
:103C00002B8D3C8D4D8D5E8D632D722D89819D8117
:103C10000E942A349B01AC01C701B6010E940A35FB
:103C20006B017C012F8D38A149A15AA16F89788D34
:103C3000898D9A8D0E940335811103C0B2E0BD8742
:103C400002C0E1E0ED873B8C2C8CFD8DF9832E8D3D
:103C50002D830F89188D398D38AF4A8D4FABBFC07A
:103C6000A5019401632D722D89819D810E942A34C2
:103C7000362E272E89839D83B2C0A70196016B8DB6
:103C80007C8D8D8D9E8D0E9441379B01AC01B801CA
:103C900088AD9FA90E9429344B015C012F8D38A16A
:103CA00049A15AA10E94033587FF96C02F8D38A1E4
:103CB00049A15AA1B80188AD9FA90E9429342B8D32
:103CC0003C8D4D8D5E8D0E940A356B017C010F8D00
:103CD00018A159A158AF8AA18FAB92E09D877FC0F0
:103CE000A989BA8991962D913D914D915C919497B6
:103CF000C701B6010E9441374B015C019B01AC0139
:103D0000632D722D89819D810E9406371816E4F576
:103D100020E030E040E05FE3C501B4010E9441379C
:103D20009B01AC01632D722D89819D810E942934F4
:103D30009B01AC01C701B6010E9441379B01AC0158
:103D4000B80188AD9FA90E9429346FA778AB89ABD1
:103D50009AAB2BA13CA14DA15EA10E94063718167B
:103D60009CF4A5019401632D722D89819D810E948F
:103D70002934362E272E89839D830FA518A9B9A92A
:103D8000B8AFEAA9EFAB2BC02BA13CA14DA15EA11E
:103D9000B80188AD9FA90E9429349B01AC010E9403
:103DA0002A346B017C012BA93CA94DA95EA9632D86
:103DB000722D89819D810E942A349B01AC01C7012B
:103DC000B6010E940A356B017C010BA11CA1FDA16B
:103DD000F8AF2EA12FAB03C08401A8AEBFAAA701E4
:103DE0009601C301B2010E942A342B013C012B89A8
:103DF0003C894D895E890E94033587FFB3CAA301C0
:103E000092016B897C898D899E8910C02EE333ECE9
:103E10004EE259E36B897C898D899E890E942A3400
:103E20006B8B7C8B8D8B9E8BA30192010E9429341E
:103E30006B017C012BA13CA14DA15EA1B80188AD15
:103E40009FA90E94063718160CF48FCE9D8590937B
:103E5000660197CA80912805807709F4E1CA10921B
:103E60006B0110926C0110926D0110926E01109214
:103E70006201109263011092640110926501C09278
:103E80005601D0925701E0925801F09259012D85C8
:103E90003E854F855889C701B6010E940A35A98918
:103EA000BA8990C0603A5FE075078105910560F4BA
:103EB00026E0A985BA852A9FF0012B9FF00D1124D9
:103EC000E455FE4F31E011C060344FE174078105C5
:103ED000910568F426E0A985BA852A9FF0012B9FF9
:103EE000F00D1124E455FE4F32E035830CC0A6E0FE
:103EF00049855A85A49FF001A59FF00D1124E45532
:103F0000FE4FB3E0B58346E029853A85429FF00134
:103F1000439FF00D1124E455FE4F2581022E04C06D
:103F200096958795779567950A94D2F7AD81BE816E
:103F300002C0AA0FBB1F2A95E2F7B183A0836115C7
:103F40007105B1E08B07910508F4BACA8FEF9FEFB6
:103F500094838383C1CA10928601C8CA20E030E0EE
:103F6000A901B80188AD9FA90E94063718160CF068
:103F700049C010926B0110926C0110926D01109269
:103F80006E0110926201109263011092640110920E
:103F90006501C0925601D0925701E0925801F0920B
:103FA0005901009181011091820120915A013091B3
:103FB0005B0140915C0150915D01C701B6010E9417
:103FC0000A35D80195966D937D938D939C93989720
:103FD000E8960FB6F894DEBF0FBECDBFDF91CF914C
:103FE0001F910F91FF90EF90DF90CF90BF90AF9017
:103FF0009F908F907F906F905F904F903F902F9009
:104000000C94552810928201109281010E94A424E0
:1040100094CAE8960FB6F894DEBF0FBECDBFDF910D
:10402000CF911F910F91FF90EF90DF90CF90BF90B5
:10403000AF909F908F907F906F905F904F903F9048
:104040002F900895F999FECF92BD81BD81E08FBB7D
:1040500080B50895F894F999FECF92BD81BD81E0B5
:104060008FBB80B58627482F552747FD5095262FB3
:1040700030E024233523232B39F06F3F19F060BD46
:1040800084E006C084E104C0882321F060BD84E29E
:104090008FBBF99A789408958F929F92AF92BF92B6
:1040A000CF92DF92EF92FF920F931F93CF937C01F9
:1040B0004A016B01C40ED51E8B01C0E05C01A61A3B
:1040C000B70AC8018A0D9B1D0C151D05A1F0C11171
:1040D00009C02C2F332727FD3095232F221F22279D
:1040E000221F01C021E0F80161918F01C22FC60F8C
:1040F0000E942A20E6CF6C2FC701880D991DCF9111
:104100001F910F91FF90EF90DF90CF90BF90AF90F5
:104110009F908F900C942A208F929F92AF92BF9283
:10412000CF92DF92EF92FF920F931F93CF934B01A9
:104130007A016C01C40ED51E8C01C0E05B01A81A87
:10414000B90AC501800F911F0C151D05A1F00E9431
:104150002220C11109C02C2F332727FD3095232F92
:10416000221F2227221F01C021E0C22FC80FF80101
:1041700081938F01E6CFC4018E0D9F1D0E942220E6
:1041800021E030E0C81711F020E030E0C901CF9104
:104190001F910F91FF90EF90DF90CF90BF90AF9065
:1041A0009F908F90089521E5829FC001112440E5E2
:1041B00050E09D5F0C944C2040E550E0BC018EEA3D
:1041C00093E00C944C202DE0829FC00111244CE020
:1041D00050E09E5F0C944C2069E080E090E00E94EB
:1041E0002A204DE450E06FE776E081E090E00C9407
:1041F0004C20EFE7F6E08AE080AB89E183AB11AABF
:1042000012AA83E084AB8AE097EDA3E2BCE385AB1E
:1042100096ABA7ABB0AF8FE692E1A3E0BBE381AF73
:1042200092AFA3AFB4AF1092BD0680E090E0A8ECCF
:10423000B1E48093BE069093BF06A093C006B093EE
:10424000C10680E090E0AAEFB3E48093C2069093A9
:10425000C306A093C406B093C5062AEF30E030939E
:10426000C7062093C60640E050E060E87FE3409335
:10427000C8065093C9066093CA067093CB06109285
:10428000BC0640E050E06AE773E4408351836283F8
:10429000738344835583668377834087518762871E
:1042A000738784879587A687B787808B918BA28B2E
:1042B000B38B848B958BA68BB78B80E090EAACE0B8
:1042C000B7E4808F918FA28FB38F848F958FA68F45
:1042D000B78F80A391A3A2A3B3A380E090E0A8E44A
:1042E000B3EC84A395A3A6A3B7A380A791A7A2A785
:1042F000B3A784A795A7A6A7B7A70C94EC2060E066
:1043000080E093E00E942A2060E081E593E00C9435
:104310002A2060E08EEA93E00C942A201F93CF932A
:10432000DF93182FEB0181E5189FB00111247D5F09
:1043300040E550E0CE010E948C20892B39F4188290
:10434000BE01812F0E94D32080E001C081E0DF9177
:10435000CF911F910895CF93DF93EC0140E550E09A
:104360006EEA73E00E948C20892B31F41882CE0112
:104370000E94DC2080E001C081E0DF91CF910895B0
:104380001F93CF93DF93182FEB018DE0189FB0019F
:1043900011247E5F4CE050E0CE010E948C20892BDE
:1043A00059F48CE0FE0111928A95E9F7BE01812F44
:1043B0000E94E32080E001C081E0DF91CF911F9156
:1043C000089580E090E00E942220893059F44DE465
:1043D00050E061E070E08FE796E00E948C2021E0E1
:1043E000892B09F420E0822F0895CF92DF92EF927B
:1043F000FF92CF93DF93C82F6A017B0120E030E06A
:10440000A901C701B6010E94033587FDE2C0C43689
:1044100008F441C08CE98C0F20E0833098F590E0DF
:10442000880F991F880F991F223059F0FC01233003
:10443000F1F0213019F0E158F94F1FC0E557F94F5D
:104440001CC0EC01C956D94F20E030E040E752E4EF
:10445000C701B6010E94413720E030E040E752E456
:104460000E944137688379838A839B83AEC0ED5570
:10447000F94FF7FAF094F7F8F094C082D182E28213
:10448000F382A3C02F5F8A3008F4A5C0243009F45A
:10449000A2C08A50C2CFC701B6010E940F380E9445
:1044A00077358C2F90E08C31910508F094C0FC0199
:1044B000E75AFF4F0C946738633008F48EC060935E
:1044C000AF0683C06093B20680C06093B00602C09E
:1044D0006093B1060E94D91878C08091BC0666230B
:1044E00011F0846007C08B7F05C08091BC066623F5
:1044F00021F080648093BC0668C08F7BFBCF8091E5
:10450000BC06662311F08068F5CF8F77F3CF6093F8
:10451000B3065BC0C092B406D092B506E092B60670
:10452000F092B70652C0C092B806D092B906E09297
:10453000BA06F092BB0649C08091BC06662311F012
:104540008160D8CF8E7FD6CF8091BC06662321F0C4
:1045500084FF45C08062CECF8F7DCCCF8091BC06DA
:10456000662311F0886001C0877F8093BC060E949B
:1045700059292BC08091BC06662311F08061BACF07
:104580008F7CB8CF6093BD0620C0C092BE06D0928B
:10459000BF06E092C006F092C10617C0C092C206E4
:1045A000D092C306E092C406F092C5060EC070E039
:1045B0007093C7066093C60608C0C092C806D09222
:1045C000C906E092CA06F092CB060E94EC2080E079
:1045D00007C084E005C083E003C086E001C08AE034
:1045E000DF91CF91FF90EF90DF90CF9008951F93D0
:1045F000CF93DF93CDB7DEB72C970FB6F894DEBF1D
:104600000FBECDBF0E94E12181110BC087E00E9447
:10461000C52D0E94F9200E947F210E9489210E94BD
:104620002E2E10E0BE016F5F7F4F812F0E94C021B0
:10463000811103C087E00E94C52D1F5F183091F7DC
:104640002C960FB6F894DEBF0FBECDBFDF91CF9191
:104650001F910895882321F0813021F080E1089591
:1046600084E0089588E00895882321F0813021F0C6
:1046700080E8089580E2089580E40895882321F079
:10468000813021F088E0089582E0089584E0089563
:104690002F923F924F925F926F927F928F929F9252
:1046A000AF92BF92CF92DF92EF92FF920F931F9340
:1046B000CF93DF93C0914302C11101C0C2E1C15049
:1046C000D0914102CD1709F41BC1EC2EF12C29E247
:1046D000C29F800111240B5B1D4FF801A588B6888D
:1046E000C788D08C61A172A183A194A19B01AC0168
:1046F0000E942A34F80125A136A147A150A50E94A5
:1047000041374B018C019B01AC01B501C6010E94F0
:10471000033587FD02C05401680189E28E9DF001D6
:104720008F9DF00D1124EB5BFD4FC501D601818BF0
:10473000928BA38BB48BC11101C0C2E1C150CD17C4
:1047400061F029E22E9DC0012F9D900D11249C0146
:104750002B5B3D4F7901D9E233C080914402D813DD
:104760005EC00E9461195BC0AC2EB12CDA9DC00105
:10477000DB9D900D1124FC01EB5BFD4F6F01C1111E
:1047800001C0C2E1C15080914402C81302C00E941E
:104790006119DA9D8001DB9D100D11240B5B1D4F0B
:1047A000F80185889688A788B08CA5019401618955
:1047B0007289838994890E940335811106C076012C
:1047C00080914102C813D0CF2AC0F80161A172A123
:1047D00083A194A19B01AC010E942A34F80125A178
:1047E00036A147A150A50E944137F701218932899E
:1047F000438954890E942A342B013C01A50194016C
:104800000E940335F80187FF05C0418A528A638AF6
:10481000748AD5CF818A928AA38AB48AD0CFD09164
:104820004102F9E2DF9F800111240B5B1D4FC1E0C3
:10483000CD0FC23109F4C0E02090430289E2382E46
:10484000C21509F45BC0CC2ED12C3C9CC0013D9C10
:10485000900D11249C012B5B3D4F7901F80141889B
:10486000528863887488F90181889288A388B48803
:10487000A5019401C301B2010E94033587FF24C042
:10488000F80161A172A183A194A19B01AC010E94D6
:104890002A34F80125A136A147A150A50E9441372D
:1048A0009B01AC01C301B2010E942A342B013C01DF
:1048B000A50194010E94033587FF06C0F701418AD4
:1048C000528A638A748ADC2F3C9CF0013D9CF00D77
:1048D0001124EB5BFD4F258936894789508D61890D
:1048E0007289838994890E940335811101C0DC2F6C
:1048F000CF5FC23109F4C0E08701A2CFD09341025B
:10490000DF91CF911F910F91FF90EF90DF90CF90AB
:10491000BF90AF909F908F907F906F905F904F90DF
:104920003F902F9008958CE1E5E2F2E0DF011D92C7
:104930008A95E9F7109244021092430281E0809335
:1049400042021092410208959091440280914302E4
:10495000891769F081E0890F823109F480E02091A4
:104960004102921302C08093410280934402089551
:104970008091440290914302981739F029E2829F76
:10498000C00111248B5B9D4F089580E090E0089555
:10499000E0914402EF5FE23109F4E0E080914302EC
:1049A000E81761F089E2E89FF0011124EB5BFD4F0D
:1049B00061897289838994890C94CE3760E070E0B4
:1049C000CB01089581E02091440290914202291385
:1049D00080E008952F923F924F925F926F927F9264
:1049E0008F929F92AF92BF92CF92DF92EF92FF92FF
:1049F0000F931F93CF93DF93CDB7DEB7E2970FB638
:104A0000F894DEBF0FBECDBF4B8F5C8F6D8F7E8F56
:104A1000622E20914302422F50E05AA349A359E24B
:104A2000259F80011124F801EB5BFD4F158616864A
:104A30001786108A15A216A217A210A6108249E99D
:104A400056E766E97EE741A352A363A374A32C0152
:104A50008FE796E09EA38DA3AE01435F5F4F5EA7F5
:104A60004DA785E292E09CA78BA74C5051095CA30F
:104A70004BA31AAB09AB58A34F8F45E252E058A79E
:104A80004FA39FE7C92E96E0D92EE12CF12C712C73
:104A90008F01CF010D9698AB8FA71F0195E2290ECC
:104AA000311CF20161917191819191912F01F60177
:104AB00020813181428153810E9441370E94113708
:104AC000EDA5FEA56193719381939193FEA7EDA748
:104AD000EFA1F8A581909190A190B190F8A7EFA3D4
:104AE000681979098A099B094B015C0197FF07C086
:104AF000882499245401861A970AA80AB90AE9A9B0
:104B0000FAA9EE0DFF1DEB5BFD4F81829282A3821D
:104B1000B482EFA5F8A920813181428153818216A8
:104B20009306A406B50610F449015A01EFA5F8A9A9
:104B300080829182A282B3820E94A535F6012081F3
:104B40003181428153810E940A354B015C01EF8D16
:104B5000F8A16193719381939193F8A3EF8F20E073
:104B600030E0A9010E94033587FF07C0872D0E940E
:104B70003423F8019081892B8083A5019401C5011C
:104B8000B4010E944137F10120813181428153817A
:104B90000E942A34F101608371838283938373942A
:104BA000F4E0EF0EF11C24E0C20ED11C3CE0E31651
:104BB000F10409F076CF0E94CE376B017C01F10140
:104BC0006083718382839383F80185859685A785A9
:104BD000B089892B8A2B8B2B09F422C220E030E08C
:104BE000A9016B8D7C8D8D8D9E8D0E94033587FD77
:104BF00021C0662061F0A70196016B8D7C8D8D8DA3
:104C00009E8D0E9441376B8F7C8F8D8F9E8F20E011
:104C100030E040E85FE36B8D7C8D8D8D9E8D0E9432
:104C2000033587FF0FC01B8E1C8EF0E8FD8F2FE32E
:104C30002E8F08C039E93B8F46E74C8F56E95D8FD0
:104C40008EE78E8FA701960160E070E080E89FE319
:104C50000E940A356FA378A789A79AA7FE013D96FF
:104C6000FA8FE98FC12CD12C760129E249A15AA1F2
:104C7000249FC001259F900D1124FC01EA59FD4F8E
:104C8000F8A3EF8FEBA1FCA180809180A280B3807C
:104C900020E030E0A901C501B4010E94033588235A
:104CA00009F46CC02FA138A549A55AA5C501B401C6
:104CB0000E9441372B013C01EBA1FCA16083718371
:104CC000828393839B01AC0160E070E080E89FE306
:104CD0000E940A354B015C01E894B7F8EDA1FEA1F2
:104CE0002485358546855785C501B4010E94413725
:104CF0001B018C019B01AC016B8D7C8D8D8D9E8D7C
:104D00000E94033587FD04C02B8E3C8E0D8F1E8FB5
:104D1000EF8DF8A12080318002811381EDA1FEA1E9
:104D2000208D318D428D538DC501B4010E944137D4
:104D30004B015C019B01AC01B101C8010E9403352C
:104D400087FD02C014018501C101D801EF8DF8A1D2
:104D500080839183A283B383EBA5FCA5248535854D
:104D600046855785C301B2010E9441379B01AC01C2
:104D7000C701B6010E9429346B017C012BA13CA123
:104D80002C5F3F4F3CA32BA34BA55CA54C5F5F4F13
:104D90005CA74BA78DA19EA104969EA38DA3E98D30
:104DA000FA8D2E173F0709F06DCF90914302809145
:104DB000440298130FC089E229A13AA1829FF00111
:104DC000839FF00D1124EB5BFD4F118A128A138A29
:104DD000148A14C024EA30E74DE75FE3C701B60147
:104DE0000E94063718167CF489E249A15AA1849FD3
:104DF000F001859FF00D1124EB5BFD4F118E128E9B
:104E0000138E148E6DC024EA30E74DE75FEBC701C7
:104E1000B6010E940637181644F084EAC82E80E7CF
:104E2000D82E8DE7E82E8FEBF82EA701960160E0D3
:104E300070E080E89FE30E94293420E030E040E009
:104E40005FE30E9441370E94CE376B017C0189E20B
:104E500029A13AA1829FF001839FF00D1124EB5B01
:104E6000FD4F2091B4063091B5064091B6065091A1
:104E7000B70661A172A183A194A10E944137A70145
:104E800096010E9441374B015C01A701960160E049
:104E900070E080E89FE30E9429349B01AC01C501CA
:104EA000B4010E940A357B018C0120E030E0A901A9
:104EB0000E94033587FF04C0E12CF12C00E010E0D4
:104EC00089E249A15AA1849FF001859FF00D112428
:104ED000EB5BFD4FA701B801418F528F638F748F39
:104EE0002B8D3C8D4D8D5E8D6B8D7C8D8D8D9E8D36
:104EF0000E9441377B018C0189E229A13AA1829F5E
:104F0000F001839FF00D1124EB5BFD4FC701D80129
:104F1000858F968FA78FB0A3A18CB28CC38CD48CB5
:104F200060903D0270903E0280903F02909040025F
:104F30009301A401B701C8010E94033587FD05C094
:104F4000762D672D982D892D04C07E2D6F2D902FE5
:104F5000812F272F362F492F582FB501C6010E94C8
:104F6000033587FD0DC09301A401B701C8010E945C
:104F7000033587FD03C05301640102C05701680176
:104F800089E249A15AA1849FF001859FF00D112467
:104F9000EB5BFD4FC501D601858B968BA78BB08F40
:104FA0008CE0FE013196A1E3B2E001900D928A956A
:104FB000E1F7C701D80180933D0290933E02A09390
:104FC0003F02B09340028CE0FE013D96A5E2B2E0C4
:104FD00001900D928A95E1F78091420280934302FD
:104FE0008F5F823109F480E080934202E2960FB62F
:104FF000F894DEBF0FBECDBFDF91CF911F910F910F
:10500000FF90EF90DF90CF90BF90AF909F908F90E8
:105010007F906F905F904F903F902F900C9448231B
:10502000E2960FB6F894DEBF0FBECDBFDF91CF91F1
:105030001F910F91FF90EF90DF90CF90BF90AF90B6
:105040009F908F907F906F905F904F903F902F90A8
:105050000895E5E2F2E0A7E2B5E015964D915D9185
:105060006D917C9118974083518362837383199665
:105070004D915D916D917C911C974483558366831E
:1050800077831D968D919D910D90BC91A02D808769
:105090009187A287B387089580914302909144023B
:1050A000891708F48E5E891B08950E94611980910A
:1050B0004402809341020C9448234F925F926F9276
:1050C0007F92AF92BF92CF92DF92EF92FF920F93B7
:1050D0001F93CF93DF936C01FB015A018081D601AE
:1050E000A80FB11D9C918D019D3231F40E5F1F4FB1
:1050F00011969C91D1E00AC09B3219F00F5F1F4FAF
:1051000004C00E5F1F4F11969C91D0E0512C612C72
:10511000C0E020E030E0A901780160ED762E790E44
:1051200089E08715D8F06394A8E0A61598F051108F
:10513000C150A5E0B0E00E942E38DC01CB01880F01
:10514000991FAA1FBB1F9C01AD01270D311D411DD9
:10515000511D0BC0511009C0CF5F07C0BEEF7B12BD
:1051600009C0511007C0552453940F5F1F4FD7013A
:105170009C91D2CF662009F450C07F01CA01B901C9
:105180000E94A3352B013C0120E030E0A9010E94E0
:105190000335882349F1CF3F64F42AE037ED43E239
:1051A0005CE3C301B2010E9441372B013C01CE5F99
:1051B000F2CFCF3F59F42DEC3CEC4CEC5DE3C30156
:1051C000B2010E9441372B013C010EC0CC2361F09B
:1051D00020E030E040E251E4C301B2010E944137D7
:1051E0002B013C01C150F2CFDD2351F077FA7094CE
:1051F00077F87094F501408251826282738206C012
:10520000D5014D925D926D927C9213970C191D09F8
:105210000150F701008381E001C080E0DF91CF9170
:105220001F910F91FF90EF90DF90CF90BF90AF90C4
:105230007F906F905F904F900895009741F0EFE955
:10524000FFE03197F1F700C000000197F6CF089515
:105250008F929F92AF92BF92CF92DF92EF92FF9286
:1052600069017A019B01AC010E9441374B015C014D
:10527000A7019601C701B6010E9441379B01AC010D
:10528000C501B4010E942A34FF90EF90DF90CF90C7
:10529000BF90AF909F908F900C94CE37EBE6F0E0EC
:1052A0008081817F8083E8E6F0E080818E7F80834B
:1052B000089584B1817F84B985B18E6085B980916C
:1052C000BC0683FF0BC080916B008E6080936B00E7
:1052D0008091680081608093680008950C944E2945
:1052E000EF92FF920F931F93CF93DF93C3B1CE70D2
:1052F0008091BC0686FD02C08EE0C827CC23C1F099
:1053000000E010E0D0E0EE24E394F12C802F0E9426
:105310003E238C2339F0C701002E01C0880F0A9468
:10532000EAF7D82B0F5F1F4F0330110579F701C043
:10533000D0E08D2FDF91CF911F910F91FF90EF90D3
:1053400008951F920F920FB60F9211242F933F933F
:105350004F935F936F937F938F939F93AF93BF937D
:10536000EF93FF9380912805813071F080912B0598
:1053700081110AC00E94BB089FB7F89480912B0549
:10538000836080932B059FBFFF91EF91BF91AF91F9
:105390009F918F917F916F915F914F913F912F914D
:1053A0000F900FBE0F901F9018952F923F924F9223
:1053B0005F926F927F928F929F92AF92BF92CF92A5
:1053C000DF92EF92FF920F931F93CF93DF93CDB7AE
:1053D000DEB769970FB6F894DEBF0FBECDBF9091D0
:1053E00027059111A4C1782E23EAA22E26E0B22E21
:1053F0009E01235F3F4F490100E010E0C12CD12CFA
:10540000760190E09B8B8A8B802F0E942A23D40107
:105410008D934D018A899B89002E02C095958795B1
:105420000A94E2F780FF1AC020E030E040EC5FEB26
:10543000F50160817181828193810E9441371B0156
:10544000582E692E9B01482F592FC701B6010E9483
:10545000063718161CF06101E52CF62C0F5F1F4F64
:10546000F4E0AF0EB11C0330110571F68090C20656
:105470009090C306A090C406B090C50694E0692E33
:1054800001E0442443946CE275E0CE0101960E9451
:105490000E348091BD06282F30E03D8B2C8BFE0111
:1054A000319687E295E0998B888B1C0120E030E0F3
:1054B000512C10E0B701A60170588A899B89022EF1
:1054C00002C0959587950A94E2F780FF28C053940F
:1054D000D10115961D921D921D921C9218978C89D0
:1054E0009D89022E02C0959587950A94E2F780FF68
:1054F00003C0002319F007C0002329F0C082D18225
:10550000E282F38204C04083518362837383ADE0FF
:10551000B0E0AC0FBD1FA20FB31F8C91182B2F5FF3
:105520003F4F3496B4E02B0E311C2330310529F661
:10553000652D70E080E090E00E94A3350E94CE3798
:105540009B01AC01C501B4010E944137AB01BC0114
:10555000109338054E8B5F8B688F798F0E942928B6
:1055600020E04E895F89688D798DCE0101960E9479
:10557000EA240E9483190E945A160023E9F00E942F
:105580007029FE013D9620E030E090E06191462FC9
:10559000412359F0AC01022E02C0559547950A945B
:1055A000E2F740FF02C0609516232F5F3F4F233084
:1055B000310561F7109338050E94831980912A05FF
:1055C0008473C1F080912A05807329F00E94BB0882
:1055D0000E949A14ACC00111A5C00E9470298721B5
:1055E000A9F79FB7F89480912A058B7F80932A05AD
:1055F0009FBF04C0812F8C7109F0BFCF0E94131987
:105600000E9493248091C6069091C7060E941D298E
:105610000425C9F020E030E040EA50E46091C8067B
:105620007091C9068091CA069091CB060E944137BD
:105630006B017C018090BE069090BF06A090C006D2
:10564000B090C10610C0C090C806D090C906E090C6
:10565000CA06F090CB068090C2069090C306A09038
:10566000C406B090C5066A9461100DCFC090BD0607
:10567000D12C8090C8069090C906A090CA06B09020
:10568000CB062401350177FA709477F870948FE790
:10569000E82E86E0F82E00E010E08A899B89002E33
:1056A00002C0959587950A94E2F780FF2AC0C6014B
:1056B000002E02C0959587950A94E2F7F70180FFC6
:1056C0000EC024A135A146A157A1C501B4010E9475
:1056D0002A34D7012D913D914D915C9106C02081D6
:1056E000318142815381C301B2010E9441370E943E
:1056F0001137A889B98915966D937D938D939C93E5
:1057000018970F5F1F4FE889F9893496F98BE88B5A
:10571000F4E0EF0EF11C0330110509F0BECF0E943A
:10572000292805C080912A0582FF5BCF4FCF69965B
:105730000FB6F894DEBF0FBECDBFDF91CF911F91A2
:105740000F91FF90EF90DF90CF90BF90AF909F9020
:105750008F907F906F905F904F903F902F90089523
:10576000AF92BF92CF92DF92EF92FF920F931F936F
:10577000CF93DF93EC0103EA16E05C018CE0A80E06
:10578000B11CC990D990E990F99020E030E0A901CE
:10579000C701B6010E940637181684F0F80121915E
:1057A0003191419151918F01C701B6010E9403359A
:1057B00087FD04C0CA15DB0521F72CC080912805A0
:1057C000883091F49FB7F89480912A05886080937F
:1057D0002A059FBF0E949A148091270581111AC043
:1057E000809128058111F6CF0E94BB089FB7F894DD
:1057F00080912B05856080932B059FBFDF91CF9112
:105800001F910F91FF90EF90DF90CF90BF90AF90DE
:105810000C949A14DF91CF911F910F91FF90EF900C
:10582000DF90CF90BF90AF900895CF93DF93EC01BE
:105830008991882319F00E94DD13FACFDF91CF916F
:105840000895CF93DF93FC018491EF012196882383
:1058500021F00E94DD13FE01F7CFDF91CF91089573
:10586000EF92FF920F931F93CF93DF931F92CDB7C9
:10587000DEB7362FEDB6FEB66DB77EB7641B710985
:105880000FB6F8947EBF0FBE6DBF0DB71EB70F5F8A
:105890001F4F202FF8019E2F921B941728F4632F7F
:1058A0000E9439389193F7CF442361F0F801E40F57
:1058B000F11D31978081805D49830E94DD1349810C
:1058C0004150F2CF0FB6F894FEBE0FBEEDBE0F9062
:1058D000DF91CF911F910F91FF90EF90089548E0D5
:1058E00062E00C94302C8A3020F0843620F043E0C3
:1058F00003C041E001C042E06AE00C94302C8F927A
:105900009F92AF92BF92CF92DF92EF92FF920F934E
:105910001F93CF93DF93CDB7DEB72A970FB6F894D6
:10592000DEBF0FBECDBF6B017C01042F20E030E055
:10593000A9010E94033587FF07C08DE20E94DD1395
:10594000F7FAF094F7F8F094102F123060F020E09E
:1059500030E048EC52E4C701B6010E9441376B01C8
:105960007C011250F2CF00FF0AC020E030E040E29C
:1059700051E4C701B6010E9441376B017C0120E070
:1059800030E040E05FE3C701B6010E942A340E9484
:105990007235E1E0F0E0EC0FFD1FE00FF11D2EE2AB
:1059A000208310E03AE0832E912CA12CB12C6115BC
:1059B000710581059105A9F0101301C01F5FEE2448
:1059C000E394F12CEC0EFD1EE10EF11CA5019401F7
:1059D0000E944538605DF7016083B901CA011F5F0D
:1059E000E6CF80E3101748F4E1E0F0E0EC0FFD1F94
:1059F000E10FF11D80831F5FF5CF10130BC012E084
:105A0000100F0F5FE1E0F0E0EC0FFD1FE00FF11D64
:105A100080E38083112341F0FE01E10FF11D8081BD
:105A20000E94DD131150F6CF2A960FB6F894DEBF10
:105A30000FBECDBFDF91CF911F910F91FF90EF90DF
:105A4000DF90CF90BF90AF909F908F90089520915E
:105A5000BC0620FF08C02BE832E441E25DE30E946F
:105A6000413744E001C043E00C947F2C2091BC06F8
:105A700020FF08C02BE832E441E25DE30E94413799
:105A800041E001C040E00C947F2C43E00C947F2C5B
:105A90003D98459A08951092CC069091BC0697FDCA
:105AA00003C090E29093CC06882331F09091CC060D
:105AB00080E289278093CC06089586B18072909108
:105AC000CC0689270895809139058130A1F40E9480
:105AD0005D2D882381F0109239058CE0ECE2F5E031
